:020000040000FA
:020000003528A1
:080008004D2882073F34063445
:100010005B344F3466346D347D3407347F346F3451
:100020008316031306309F0083160313860183167D
:1000300003138501831203138501831203138501C2
:10004000A001A10108008B178B160B118316031357
:100050000430810083120313063081003F30A30077
:100060003F30A4007D30A500080010202320FF3081
:100070008500051085142308860048200514851086
:10008000063021020319A1012408860048203728E0
:10009000FF30A200A20B4A2808000B110630810095
:1000A000A50B6A287D30A500A00A0A302002031D96
:1000B0005A285E2820080520A3006A28A0013F30A6
:1000C000A3000311A10A06302102031935282108D3
:0600D0000520A400090058
:02400E00313F40
:00000001FF
